ACCT00000001AAPL      TRD000000000001B00000100000014525020240801NYSE  BRKR0001
ACCT00000001AAPL      TRD000000000002S00000050000015075020240801NYSE  BRKR0001
ACCT00000002MSFT      TRD000000000003B00000030000029050020240801XNAS  BRKR0002
