0000001234SMALL BIZ MART              005000000150020-00225020240115
0000005678REGIONAL SUPPLY CO          009500000180015-00195020240122
0000009101URBAN RETAIL GROUP          003750000200007-00087520240125
